:100000000C94B5000C94BF000C94BF000C94BF007E
:100010000C94BF000C94BF000C94BF000C94BF0064
:100020000C94BF000C94BF000C94BF000C94BF0054
:100030000C94BF000C94BF000C94BF000C94BF0044
:100040000C94BF000C94BF000C94BF000C94BF0034
:100050000C94BF000C94BF000C94BF000C94BF0024
:100060000C94BF000C94BF006E616E00696E660058
:1000700000407A10F35A00A0724E18090010A5D45F
:10008000E80000E87648170000E40B54020000CABC
:100090009A3B000000E1F505000080969800000002
:1000A00040420F000000A086010000001027000061
:1000B0000000E803000000006400000000000A00E7
:1000C000000000000100000000002C76D888DC67EA
:1000D0004F0823DFC1DFAE59E1B1B796E5E3E45342
:1000E000C63AE651997696E8E6C28426EB898C9B5F
:1000F00062ED407C6FFCEFBC9C9F40F2BAA56FA5FF
:10010000F490055A2AF75C936B6CF9676DC11BFC80
:10011000E0E40D47FEF520E6B500D0ED902E03009B
:10012000943577050080841E080000204E0A0000E8
:1001300000C80C333333330F986E12831141EF8DA7
:100140002114893BE65516CFFEE6DB18D1844B38E7
:100150001BF77C1D901DA4BBE424203284725E2218
:100160008100C9F124ECA1E53D2711241FBECFEF8A
:10017000D8E0DEBFCDBF0E947D040C943A060C94FB
:100180000000569A5E9A08950C94C1008BB190E4D9
:1001900089278BB92FEF89E698E121508040904064
:1001A000E1F700C000000895A1E1B0E0EAEDF0E061
:1001B0000C9487047C013B015A01DC0117961C92C8
:1001C0001E92169713968C9181FF94C3F701938129
:1001D000F30193FD859193FF81913F01882309F4F9
:1001E00068C0853239F493FD859193FF81913F0179
:1001F000853239F4B70190E00E94AC0565015601E3
:10020000E5CF812C512C00E00032D0F58B3289F102
:1002100058F4803279F1833289F19BE9980F933059
:1002200008F026C20F7E5AC08D3231F1803349F07A
:1002300020ED280F2A3090F18E3209F041C0006481
:1002400001C00160F30193FD859193FF81913F010E
:100250008111DACF102F197F803709F40FC308F00E
:1002600005C3883509F40CC38F3619F528E030E052
:10027000E0C202600460E6CF0860E4CF0061E2CF34
:1002800007FD25C020ED280F2A3078F406FF06C0B0
:10029000FAE08F9E200D1124822ED4CF3AE0539E97
:1002A000200D1124522E0062CDCF8E3249F406FF6C
:1002B000C6CFF701868197816196E2E10C94A30491
:1002C0008C3611F40068BECF883609F4BBCF9BEBA7
:1002D000980F933008F0A1CF0061805E402F4074EA
:1002E000442E0F73902E4111A8C0853609F0AFC07F
:1002F000689496F866E0862E16E0F501819191915A
:10030000A191B1916F018C879D87AE87BF87042D26
:10031000282DAE014F5F5F4FBC01CD010E94BE048E
:100320005C013980832D8C7030FE02C033FED1C059
:10033000082F91FCCAC092FEAAC08111E1C000E260
:1003400097FEF9C04A0C34FE04C08A81813309F457
:100350004A9414140CF01CC1F8E0F41510F498E061
:10036000492EC501B7FE02C080E090E00196011160
:100370000196112331F0212F30E02F5F3F4F820F84
:10038000931F252D30E0581A821793070CF0512C3B
:10039000892D8970811102C05110FDC0002329F000
:1003A000B701802F90E00E94AC0593FC02C0511071
:1003B000F9C097FE0FC14501B7FE02C0812C912CF8
:1003C000C5018819990961E070E06C0F7D1F680F05
:1003D000791F7D876C87C50184199109998B888B5A
:1003E000012F10E0119501951109A814B9040CF41E
:1003F000E0C0A889B989A815B9050CF0DAC0EC8568
:10040000FD858181F1E08F1A91082C853D852F5F54
:100410003F4F3D872C87801691060CF4CCC0B70166
:1004200090E00E94AC053FEF83169306F1F6B7010A
:100430008EE290E00E94AC05D8CF853679F46894BE
:1004400096F867E06815F8F0182D412C56CF35E086
:10045000832E8636C9F756E0852E02C0863671F4A3
:10046000689497F8882D5BE3581508F48BE34424CF
:100470004394480E182D47E0842E3FCF10E088208B
:1004800021F38A94DECF27E0822E17E0DECF882387
:1004900009F456CFF3E0F51510F1512C0CE610E0FD
:1004A00033FE02C008E610E0592D5071952EF80178
:1004B0008491811137C0552009F4A1CEB70180E2A3
:1004C00090E00E94AC055A94F6CF811127C00BE250
:1004D00037CF0DE2882309F433CF1DE212C02DEF90
:1004E000520E192D18701111D9CFB70180E290E08A
:1004F0000E94AC055A945110F8CF112371F208C034
:1005000010E234E0351560F44CEF540E93FEEDCF5D
:10051000B701812F90E00E94AC05C0CF1BE2F1CF64
:10052000512CF6CF91108052B70190E00E94AC059B
:100530000F5F1F4FBCCF96FE03C085E090E017CF42
:10054000E12FF0E0EA15FB053CF02CEFA2162FEFAF
:10055000B20614F0689497F8329641E050E04C0FE0
:100560005D1FE40FF51F01C01150112319F0829196
:100570008033D1F397FEE1CF44244394410E812F81
:1005800090E01A19A816B9060CF4EBCE10E0E9CEEB
:1005900044244394E6CEB70180E290E00E94AC058B
:1005A0005A94FACEB70180E390E00E94AC055A94C9
:1005B000FECE80E327CFA814B90439F49A8196338C
:1005C00018F4953311F434FE81E3B70190E00E94F2
:1005D000AC0571CF8A81813311F0E89434F8B7010A
:1005E00090E00E94AC05111125C085E490E094FCD8
:1005F00002C085E690E0B7010E94AC05B7FC05C0DB
:10060000A114B10471F534FE2CC0B194A194B108C9
:100610008DE2B70190E00E94AC0580E35AE0A51698
:10062000B1040CF5B70190E00E94AC05B701C5011B
:10063000C096CDCFB7018EE290E00E94AC051E5F60
:1006400002E0802F0F5FE1E0F0E0EC0FFD1FE80F0C
:10065000F11D8081B70190E00E94AC050113F1CF3C
:10066000C4CF8BE2D6CF8F5F4AE0A41AB108D6CFB1
:100670008336B1F0833709F43CC0833509F04FC0AD
:10068000F501219031906F01682D70E006FD02C0E8
:100690006FEF7FEFC1010E9496055C0100680EC0FC
:1006A000650162E0C60ED11CD5018C918983AA2414
:1006B000A394B12CFE0131961F010F7703FD05C0F5
:1006C000852D90E0A816B90618F1A114B10409F41B
:1006D000F2CEF10107FD859107FF81911F01B7015E
:1006E00090E00E94AC0551105A94F1E0AF1AB108A5
:1006F000ECCFD5012D903D906D01682D70E006FD89
:1007000002C06FEF7FEFC1010E94A1055C01D5CF50
:10071000B70180E290E00E94AC055A94D1CF8436B4
:1007200019F0893609F07EC007FF73C0D5016D91BD
:100730007D918D919D916D010F76402E97FF09C09F
:1007400090958095709561957F4F8F4F9F4F6894DE
:1007500047F82AE030E08E010F5F1F4FA8010E948A
:10076000DC05B82EB01A1B2D042D46FE0AC00E7FE4
:10077000B81438F444FE04C042FC02C0042D0E7EBE
:10078000182D04FF90C0FE01EB0DF11D8081803318
:1007900009F083C0097E03FD0EC000FF93C08B2CBF
:1007A000151518F4850C811A152D852D811B5116F0
:1007B00008F480E0180F151508F086C0511A04FFE0
:1007C00085C0B70180E390E00E94AC0502FF09C03C
:1007D00088E590E001FD02C088E790E0B7010E9443
:1007E000AC05B81408F47FC0BA940B2D10E00F5F6D
:1007F0001F4FCE0101965C01080F191FD8018E9181
:100800008D01B70190E00E94AC05A016B106B1F7CA
:1008100052CEF501619171916F01072E000C880B8A
:10082000990B8ACF102F1F7E2AE030E0853709F020
:1008300011CD17FF2AC0D5014D915D916D917D912C
:100840006D014C875D876E877F87BE016F5F7F4F2D
:100850005B01AB016C857D858E859F850E94DC05E3
:10086000B82EBA18412EE89447F87DCF883709F0A2
:1008700020CD14FD146020E130E0DBCF1061F9CF12
:1008800004FD166020E132E0D4CFF5018191919111
:100890006F01AC0160E070E0D4CF02FD02C01F5FC9
:1008A0007ACF1E5F78CF802F8678882309F473CFA4
:1008B000F6CFB70180E290E00E94AC05A394A514A6
:1008C000C0F373CFA12EFBCF512C79CF802F867828
:1008D000882309F486CF8BE201FF80E207FD8DE2D9
:1008E000B70190E07CCFB70180E390E00E94AC05B7
:1008F0008A9477CF8FEF9FEFDFCC80E88093610001
:10090000109261000E94C4000E94C600FDCF2F9289
:100910003F924F925F926F927F928F929F92AF928F
:10092000BF92CF92DF92EF92FF920F931F93CF93DC
:10093000DF93CDB7DEB7CA1BDB0B0FB6F894DEBF73
:100940000FBECDBF09942A88398848885F846E8499
:100950007D848C849B84AA84B984C884DF80EE80E3
:10096000FD800C811B81AA81B981CE0FD11D0FB6EC
:10097000F894DEBF0FBECDBFED010895283008F01A
:1009800027E03327DA01990F311D87FD916000962A
:100990006105710539F432602E5F3D9330E32A958D
:1009A000E1F708959F3F30F080387105610509F047
:1009B0003C5F3C5F3D93913008F08068911DDF9370
:1009C000CF931F930F93FF92EF92192F987F9695D5
:1009D000E92F96959695E90FFF27E653FF4F992744
:1009E0003327EE24FF24A701E7010590089407941C
:1009F00028F4360FE71EF81E491F511D660F771F9A
:100A0000881F991F0694A1F70590079428F4E70E14
:100A1000F81E491F561FC11D770F881F991F661F9B
:100A20000694A1F70590079428F4F80E491F561F65
:100A3000C71FD11D880F991F661F771F0694A1F746
:100A40000590079420F4490F561FC71FD81F990F10
:100A5000661F771F881F0694A9F784911095177059
:100A600041F0D695C79557954795F794E7941A9511
:100A7000C1F7E0E7F0E06894159015913591659124
:100A8000959105907FE27395E118F10A430B560B9F
:100A9000C90BD009C0F7E10CF11E431F561FC91F37
:100AA000D01D7EF4703311F48A95E6CFE89401509E
:100AB00030F0080F0AF40027021708F4202F2395BE
:100AC000022F7A3328F079E37D932A95E9F710C055
:100AD0007D932A9589F6069497956795379517958E
:100AE0001794E118F10A430B560BC90BD00998F083
:100AF00023957E9173957A3308F070E37C932013ED
:100B0000B8F77E9170617D9330F0839571E37D93AA
:100B100070E32A95E1F71124EF90FF900F911F9158
:100B2000CF91DF91992787FD90950895FC0105905D
:100B3000615070400110D8F7809590958E0F9F1FDF
:100B40000895FC016150704001900110D8F7809524
:100B500090958E0F9F1F08950F931F93CF93DF9350
:100B6000182F092FEB018B8181FD09C01FEF0FEFBB
:100B7000812F902FDF91CF911F910F91089582FFC8
:100B800014C02E813F818C819D81281739073CF448
:100B9000E881F981CF0101969983888310838E8142
:100BA0009F8101969F838E83E3CFE885F985812F0E
:100BB0000995892BA1F3DACFFA01AA27283051F140
:100BC000203181F1E8946F936E7F6E5F7F4F8F4F7E
:100BD0009F4FAF4FB1E03ED0B4E03CD0670F781FDD
:100BE000891F9A1FA11D680F791F8A1F911DA11DC2
:100BF0006A0F711D811D911DA11D20D009F46894FB
:100C00003F912AE0269F11243019305D3193DEF6A2
:100C1000CF010895462F4770405D4193B3E00FD058
:100C2000C9F7F6CF462F4F70405D4A3318F0495D43
:100C300031FD4052419302D0A9F7EACFB4E0A69526
:100C40009795879577956795BA95C9F70097610548
:100C5000710508959B01AC010A2E0694579547959E
:100C600037952795BA95C9F7620F731F841F951F93
:080C7000A01D0895F894FFCFC8
:00000001FF
